:100000000C942A000C943F230C9472230C94A52387
:100010000C9413200C94E01F0C94AD1F0C947A1FC9
:100020000C94471F0C94141F0C94E11E0C94AE1EEC
:100030000C9447000C9447000C9447000C94470024
:100040000C9447000C9447000C9447000C94470014
:100050000C94470011241FBECFE5D4E0DEBFCDBF16
:1000600011E0A0E6B0E0EAE4F4E702C005900D92EA
:10007000AC39B107D9F711E0ACE9B1E001C01D928C
:10008000A53BB107E1F70E94DB380C94233A0C94AE
:100090000000EF92FF920F93DF93CF93CDB7DEB7BF
:1000A00060970FB6F894DEBF0FBECDBFA82F002318
:1000B00009F461C07E010894E11CF11C88E0F7019D
:1000C00011928A95E9F729833A834B835C836D8388
:1000D0007E83AF83988780E2801BE82FFF27E7FDB0
:1000E000F09549815A816B817C81181684F01986BC
:1000F0001A861B861C86882799278E1B9F0B04C097
:10010000440F551F661F771F8A95D2F728C0202FEE
:10011000332727FD3095DB01CA01022E04C0880F6A
:10012000991FAA1FBB1F0A94D2F789879A87AB87AA
:10013000BC8704C07695679557954795EA95D2F7A1
:100140008D819E81AF81B88504C0880F991FAA1F39
:10015000BB1F2A95D2F7482B592B6A2B7B2B4D8737
:100160005E876F87788B29853A854B855C856D85A1
:100170007E85AF8598898A2F60960FB6F894DEBF8A
:100180000FBECDBFCF91DF910F91FF90EF900895FB
:10019000EF92FF920F931F937B018C0120E030E0E0
:1001A00040E05FE40E94501788238CF0C801B7013B
:1001B00020E030E040E05FE40E94BC140E940E1892
:1001C0009B01AC01205030404040504806C0C8015F
:1001D000B7010E940E189B01AC01B901CA011F9121
:1001E0000F91FF90EF900895EF92FF920F931F935E
:1001F0007B018C0120E030E040E050E00E9480175D
:1002000088230CF05CC0C801B70190580E946801B7
:100210002195E1E0121608F0E0E03195F1E01316C7
:1002200008F0F0E0E32EEE1AE1E03E1508F0E0E021
:10023000FE2B4195A1E0141608F0A0E0F42EFF1A61
:10024000E1E04F1508F0E0E0AE2B5195F1E0151616
:1002500008F0F0E0052F0A1BE1E0501708F0E0E09D
:10026000FE2B6195A1E0161608F0A0E0162F1F1BCB
:10027000E1E0611708F0E0E0AE2B7195F1E01716B0
:1002800008F0F0E0B72FBA1BE1E07B1708F0E0E0E0
:10029000FE2B8195A1E0181608F0A0E0382F3F1B37
:1002A000F32FE1E0831708F0E0E0AE2B91953E2DAF
:1002B0004F2D502F612F7B2F8F2F9A1B04C0C80109
:1002C000B7010E9468011F910F91FF90EF90089570
:1002D000A0E0B0E0EEE6F1E00C94EC397B018C019B
:1002E00020E030E040E85FE30E94801788234CF470
:1002F000AA24BB24CC24DD24EE24FF2400E010E05B
:1003000086C0C801B70120E030E040E85FE40E9409
:100310008017882354F4C801B7010E94C8005B010C
:100320006C01EE24FF24870172C0C801B70120E0F0
:1003300030E040E85FE50E94801787FD0FC0AA24E7
:10034000AA94BB24BA94CC24CA94DD24DA94EE2473
:10035000EA94FF24FA940FEF1FEF59C0C801B701C8
:1003600020E030E040E85FE20E941A157B018C013A
:1003700022243324210190E1A92EB12CC12CD12CAF
:10038000C0E0D0E061E070E080E090E00A2C04C0C2
:10039000660F771F881F991F0A94D2F70E94621870
:1003A0003B014C01C801B701A40193010E94501701
:1003B000882364F02A283B284C285D28C801B7010F
:1003C000A40193010E9414167B018C01D694C7945A
:1003D000B794A7942196C530D105A1F6C801B701FD
:1003E00020E030E040E85FE40E941A150E94C80057
:1003F0005B016C019B01A60160E070E080E090E091
:10040000022D0E94490059016A017B018C0195016E
:10041000A601B701C801CDB7DEB7E2E10C94083AF6
:10042000A4E0B0E0E6E1F2E00C94EE3949015A01B3
:100430006B017C01D501C4019C01AD01550F220B5C
:10044000322FA901881599F4991589F4AA1579F420
:10045000BB1569F42C1559F42D1549F42E1539F4F2
:100460002F1529F4C501B4010E94B017D0C0940122
:10047000A501B601C70100E20E94DB18C901A42F43
:10048000B52FB7FF07C0B095A095909581959F4F68
:10049000AF4FBF4F803020E0920721E0A20720E05D
:1004A000B20780F48F3F9105A105B10531F028F026
:1004B00028E030E040E050E016C020E030E040E0CE
:1004C00050E011C0803030E0930730E0A30731E006
:1004D000B30728F028E130E040E050E004C020E11C
:1004E00030E040E050E060E2462E512C612C712C4F
:1004F000421A530A640A750A04C0B695A7959795DF
:1005000087952A95D2F7FC01E456FF4F8081481A5F
:10051000510861087108411451046104710429F4FF
:1005200060E070E080E09FED72C081E290E0A0E0CA
:10053000B0E084199509A609B70989839A83AB832A
:10054000BC8319819401A501B601C701012F0E9446
:10055000DB18C901DA012C013D0180E290E0A9819C
:10056000BA818A1B9B0BA501940104C0220F331F83
:10057000441F551F8A95D2F72115310541055105B4
:1005800041F081E090E0A0E0B0E0482A592A6A2AD0
:100590007B2A29813A814B815C81203231054105DA
:1005A000510559F40F2EF0E0CF2EF0E0DF2EF0E8E9
:1005B000EF2EFFE4FF2EF02D22C089819A81AB81BE
:1005C000BC814F97A105B10559F40F2EF0E0CF2E55
:1005D000F0E0DF2EF0E0EF2EFFE4FF2EF02D0FC055
:1005E00061E070E080E090E004C0660F771F881F34
:1005F000991F1A95D2F70E94B0176B017C01C301B5
:10060000B2010E94B017A70196010E941A15249604
:10061000E0E10C940A3AA2E7B0E0E1E1F3E00C94E7
:10062000EC39982E892E712E88E0FE013196DF017B
:10063000682E1D926A94E9F729833A834B835C8381
:100640006D837E839F829887FE013996DF011D921C
:100650008A95E9F7A986BA86CB86DC86ED86FE8682
:100660000F87188B8D819E81AF81B885B7FD07C03C
:10067000E1961CAE1DAE1EAE1FAEE19764C0219583
:1006800081E0121608F080E0319591E0131608F031
:1006900090E0B32FB81B81E03B1708F080E0982B67
:1006A000419531E0141608F030E0A42FA91B81E039
:1006B0004A1708F080E0382B519591E0151608F0A4
:1006C00090E0F52FF31B81E05F1708F080E0982B96
:1006D000619531E0161608F030E0E62FE91B81E065
:1006E0006E1708F080E0382B719541E0171608F07E
:1006F00040E0572F531B81E0751708F080E0482B2E
:10070000892D819591E0181608F090E0682E641A02
:10071000462D31E0861508F030E0932B882D819529
:10072000891B2983BA83AB83FC83ED835E834F836C
:1007300088872FEF3FEF4FEF5FEFE1962CAF3DAF94
:100740004EAF5FAFE1978D859E85AF85B889B7FFC6
:100750006AC0E1964CAD5DAD6EAD7FADE197409561
:10076000509560957095E1964CAF5DAF6EAF7FAFE1
:10077000E197A19481E01A1408F080E0B19491E02F
:100780001B1408F090E06B2D681B81E0B61608F092
:1007900080E0982BC19421E01C1408F020E05C2D2F
:1007A000591B81E0C51608F080E0282BD19491E018
:1007B0001D1408F090E04D2D421B81E0D41608F086
:1007C00080E0982BE19421E01E1408F020E03E2DFB
:1007D000391B81E0E31608F080E0282BF19491E0CA
:1007E0001F1408F090E07F2D721B272F81E0F71671
:1007F00008F080E0982B019511E0101608F010E049
:10080000802F891B982F81E0091708F080E0182BB2
:10081000872D8195811BA9866A875B874C873D87D9
:100820002E879F87888B99812A813B814C815D81AE
:100830006E817F81A885B9851A850B85FC84ED843E
:10084000DE84CF84B88888E0E1E18E2E912C8C0E76
:100850009D1EF401682E11926A94E9F7998B2A8BF8
:100860003B8B4C8B5D8B6E8B7F8BA88F9E01275EA5
:100870003F4FF90111928A95E9F7B98F1A8F0B8FC3
:10088000FC8EED8EDE8ECF8EB8A2298C3A8C4B8CEE
:100890005C8CED8CFE8C0F8D18A169887A888B8812
:1008A0009C8821966CAE7DAE8EAE9FAE21976D88F2
:1008B0007E888F88988CE114F1040105110509F0F8
:1008C000D9C3621473048404950408F057C100E08E
:1008D000201600E0300601E0400600E0500688F4F3
:1008E0001FEF211631044104510439F030F048E083
:1008F000E42EF12C012D112D18C0EE24FF248701C8
:1009000014C020E0221620E0320620E0420621E05A
:10091000520630F038E1E32EF12C012D112D05C0E7
:1009200020E1E22EF12C012D112DD201C1010E2C5E
:1009300004C0B695A795979587950A94D2F78456E3
:100940009F4FDC012C9180E290E0A0E0B0E08E1996
:100950009F09A00BB10B7C018D01E21AF10801097E
:100960001109E114F10401051105D1F10E2C04C0A7
:10097000220C331C441C551C0A94D2F7A401930189
:100980000E2C04C0220F331F441F551F0A94D2F7A8
:1009900080E290E08E199F0921966CAC7DAC8EAC04
:1009A0009FAC219704C096948794779467948A9516
:1009B000D2F7622A732A842A952A2196ACACBDAC60
:1009C000CEACDFAC219704C0AA0CBB1CCC1CDD1C38
:1009D000EA94D2F72196ACAEBDAECEAEDFAE219793
:1009E0006201EE24FF242996CCAEDDAEEEAEFFAE62
:1009F000299792018101207030702D960CAF1DAFA8
:100A00002EAF3FAF2D97C401B301A70196010E94FD
:100A1000CA397B018C01C401B30129962CAD3DADCF
:100A20004EAD5FAD29970E94CA39C901DA013C0178
:100A30004D01C401B3012D962CAD3DAD4EAD5FAD62
:100A40002D970E9490399B01AC018701FF24EE2471
:100A50002196ACACBDACCEACDFAC2197C601AA27C9
:100A6000BB2757016801A82AB92ACA2ADB2AA2167D
:100A7000B306C406D506E0F408946108710881083D
:100A80009108A20CB31CC41CD51CA214B304C4044A
:100A9000D50470F0A216B306C406D50648F408942F
:100AA0006108710881089108A20CB31CC41CD51CF4
:100AB000A21AB30AC40AD50AC601B50129962CADFB
:100AC0003DAD4EAD5FAD29970E94CA397B018C01C7
:100AD000C601B50129962CAD3DAD4EAD5FAD299750
:100AE0000E94CA39C901DA015C016D01C601B50174
:100AF0002D962CAD3DAD4EAD5FAD2D970E9490393A
:100B00009B01AC018701FF24EE2421968CAD9DADA5
:100B1000AEADBFAD2197A070B070E82AF92A0A2BBC
:100B20001B2BE216F30604071507C0F40894A1086E
:100B3000B108C108D108E20CF31C041D151DE21414
:100B4000F3040405150550F0E216F3060407150733
:100B500028F40894A108B108C108D108D301992745
:100B6000882786017501E82AF92A0A2B1B2B25966E
:100B7000ECAEFDAE0EAF1FAF2597EBC421143104D0
:100B80004104510471F461E070E080E090E020E005
:100B900030E040E050E00E94CA39C901DA011C018E
:100BA0002D0100E0201600E0300601E0400600E0E4
:100BB000500688F41FEF211631044104510431F02E
:100BC00028F048E050E060E070E017C040E050E0FE
:100BD00060E070E012C020E0221620E0320620E043
:100BE000420621E0520628F048E150E060E070E063
:100BF00004C040E150E060E070E0D201C101042E89
:100C000004C0B695A795979587950A94D2F7845610
:100C10009F4FDC012C91E0E2EE2EF12C012D112DE5
:100C2000D801C701841B950BA60BB70B821B91093A
:100C3000A109B1090097A105B10561F4640153014F
:100C4000A218B308C408D50831E0632E712C812C9A
:100C5000912C24C1E3968FAFE397082E04C0220C99
:100C6000331C441C551C0A94D2F7EE2DE81B64017A
:100C700053010E2E04C0D694C794B794A7940A9437
:100C8000D2F7A4019301E3960FACE39704C0220FBF
:100C9000331F441F551F0A94D2F721966CAC7DACCC
:100CA0008EAC9FAC21970E2E04C0969487947794B7
:100CB00067940A94D2F784017301E22AF32A042B81
:100CC000152BE9AEFAAE0BAF1CAF32018824992484
:100CD000920181012070307061960CAF1DAF2EAF74
:100CE0003FAF6197C601B501A40193010E94CA39C3
:100CF0007B018C01C601B501A40193010E94CA3990
:100D0000C901DA0165968CAF9DAFAEAFBFAF6597F5
:100D1000BC01CD0161962CAD3DAD4EAD5FAD61978F
:100D20000E9490399B01AC018701FF24EE24A9ACFD
:100D3000BAACCBACDCACC601AA27BB275C016D0109
:100D4000AE28BF28C02AD12AA216B306C406D506EB
:100D500060F565966CAD7DAD8EAD9FAD65976150CC
:100D600070408040904065966CAF7DAF8EAF9FAF76
:100D70006597A20CB31CC41CD51CA214B304C404F4
:100D8000D50498F0A216B306C406D50670F46150D7
:100D900070408040904065966CAF7DAF8EAF9FAF46
:100DA0006597A20CB31CC41CD51CA21AB30AC40AB2
:100DB000D50AC601B501A40193010E94CA397B017D
:100DC0008C01C601B501A40193010E94CA39C90171
:100DD000DA013C014D01C401B30161962CAD3DAD7A
:100DE0004EAD5FAD61970E9490399B01AC018701C8
:100DF000FF24EE2489AD9AADABADBCADA070B07050
:100E000057016801A82AB92ACA2ADB2AA216B30602
:100E1000C406D506E0F408946108710881089108B9
:100E2000A20CB31CC41CD51CA214B304C404D50466
:100E300070F0A216B306C406D50648F408946108FB
:100E4000710881089108A20CB31CC41CD51C219602
:100E50008CAD9DADAEADBFAD2197E3960FACE397E2
:100E600004C0880F991FAA1FBB1F0A94D2F72196AE
:100E70008CAF9DAFAEAFBFAF2197A21AB30AC40A21
:100E8000D50A6596ECACFDAC0EAD1FAD6597D701EC
:100E900099278827682A792A8A2A9B2A8201222769
:100EA000332769960CAF1DAF2EAF3FAF6997A201F4
:100EB0009101407050706D962CAF3DAF4EAF5FAF5B
:100EC0006D97C601B50169962CAD3DAD4EAD5FADD8
:100ED00069970E94CA397B018C01C601B5016996E8
:100EE0002CAD3DAD4EAD5FAD69970E94CA39C901C9
:100EF000DA01A1968CAF9DAFAEAFBFAFA197BC0199
:100F0000CD016D962CAD3DAD4EAD5FAD6D970E94A0
:100F100090399B01AC018701FF24EE242196ACACF3
:100F2000BDACCEACDFAC2197C601AA27BB275701C9
:100F30006801A82AB92ACA2ADB2AA216B306C4065F
:100F4000D50660F5A1966CAD7DAD8EAD9FADA19738
:100F50006150704080409040A1966CAF7DAF8EAFE5
:100F60009FAFA197A20CB31CC41CD51CA214B30440
:100F7000C404D50498F0A216B306C406D50670F4CE
:100F80006150704080409040A1966CAF7DAF8EAFB5
:100F90009FAFA197A20CB31CC41CD51CA21AB30A04
:100FA000C40AD50AC601B50169962CAD3DAD4EAD5A
:100FB0005FAD69970E94CA397B018C01C601B501FA
:100FC00069962CAD3DAD4EAD5FAD69970E94CA39B3
:100FD000C901DA015C016D01C601B5016D962CAD48
:100FE0003DAD4EAD5FAD6D970E9490399B01AC0158
:100FF0008701FF24EE2421968CAD9DADAEADBFAD33
:101000002197A070B070E82AF92A0A2B1B2BE21650
:10101000F30604071507C0F40894A108B108C10835
:10102000D108E20CF31C041D151DE214F3040405A1
:10103000150550F0E216F3060407150728F4089486
:10104000A108B108C108D108A196ECACFDAC0EAD69
:101050001FADA197D7019927882796018501082BF5
:10106000192B2A2B3B2B25960CAF1DAF2EAF3FAF74
:10107000259772C26E147F048006910608F45FC241
:1010800020E0E21620E0F20621E0020720E012074D
:1010900088F43FEFE316F1040105110531F028F063
:1010A00048E050E060E070E017C040E050E060E0F1
:1010B00070E012C040E0E41640E0F40640E00407AF
:1010C00041E0140728F048E150E060E070E004C01F
:1010D00040E150E060E070E0D801C701042E04C098
:1010E000B695A795979587950A94D2F784569F4F02
:1010F000DC012C9130E2A32EB12CC12CD12CD601D5
:10110000C501841B950BA60BB70B821B9109A10986
:10111000B1090097A105B10599F4E614F704080593
:10112000190508F4FEC121966CAC7DAC8EAC9FAC69
:101130002197621473048404950408F0F2C1FFC17E
:10114000E2968FAFE297082E04C0EE0CFF1C001F42
:10115000111F0A94D2F76A2D681BD201C101062E15
:1011600004C0B695A795979587950A94D2F75C0128
:101170006D01AE28BF28C02AD12AADAABEAACFAA27
:10118000D8AE72016101E2960FACE29704C0CC0CBC
:10119000DD1CEE1CFF1C0A94D2F7C9AADAAAEBAA3E
:1011A000FCAA64015301062E04C0D694C794B794D8
:1011B000A7940A94D2F7D401C301E2960FACE29748
:1011C00004C0880F991FAA1FBB1F0A94D2F721964B
:1011D000ECACFDAC0EAD1FAD219704C01695079584
:1011E000F794E7946A95D2F737014801682A792A7B
:1011F0008A2A9B2A6DA67EA68FA698AAEDA8FEA88D
:101200000FA918AD3801882499249801870120700E
:101210003070A5960CAF1DAF2EAF3FAFA597C6019E
:10122000B501A40193010E94CA397B018C01C6015A
:10123000B501A40193010E94CA39C901DA011C0158
:101240002D01C201B101A5962CAD3DAD4EAD5FADF6
:10125000A5970E9490399B01AC018701FF24EE24E1
:10126000ADA4BEA4CFA4D8A8C601AA27BB27570106
:101270006801A82AB92ACA2ADB2AA216B306C4061C
:10128000D50600F508942108310841085108EDA859
:10129000FEA80FA918ADAE0CBF1CC01ED11EAE1407
:1012A000BF04C006D10670F0A216B306C406D50668
:1012B00048F408942108310841085108AE0CBF1CBD
:1012C000C01ED11EA21AB30AC40AD50AC601B501AE
:1012D000A40193010E94CA397B018C01C601B501AA
:1012E000A40193010E94CA39C901DA013C014D01F0
:1012F000C401B301A5962CAD3DAD4EAD5FADA59734
:101300000E9490399B01AC018701FF24EE248DA53A
:101310009EA5AFA5B8A9A070B07057016801A82A12
:10132000B92ACA2ADB2AA216B306C406D50600F5D6
:10133000089461087108810891086DA97EA98FA998
:1013400098ADA60EB71EC81ED91EA616B706C806AB
:10135000D90670F0A216B306C406D50648F4089460
:101360006108710881089108A60EB71EC81ED91E13
:10137000D601C501821B930BA40BB50B89A79AA7B5
:10138000ABA7BCA7D1019927882764015301A82ADC
:10139000B92ACA2ADB2A2596ACAEBDAECEAEDFAEE8
:1013A0002597860175012FEF3FEF40E050E0E222E4
:1013B000F32204231523A60166277727AD964CAFA9
:1013C0005DAF6EAF7FAFAD97A9A8BAA8CBA8DCA8D8
:1013D0006FEF7FEF80E090E0A622B722C822D922EB
:1013E00089A99AA9ABA9BCA91D0144245524C80107
:1013F000B701A60195010E949039A9966CAF7DAF07
:101400008EAF9FAFA997C801B701A20191010E94B9
:1014100090393B014C01AD966CAD7DAD8EAD9FAD6D
:10142000AD97A60195010E9490397B018C01AD9684
:101430006CAD7DAD8EAD9FADAD97A20191010E94C7
:1014400090395B016C01A8019701260D371D481DDD
:10145000591DA9966CAC7DAC8EAC9FACA997C4010C
:10146000AA27BB27280F391F4A1F5B1F2E153F05D0
:101470004007510748F4E12CF12C61E0062F112DB3
:10148000AE0CBF1CC01ED11ECA01AA27BB27BC01BF
:10149000CD016A0D7B1D8C1D9D1D69A47AA48BA4B2
:1014A0009CA4661677068806990650F1661577059E
:1014B0008805990509F04DC0D90199278827A99673
:1014C0002CAD3DAD4EAD5FADA99740705070820F11
:1014D000931FA41FB51F21962CAD3DAD4EAD5FAD42
:1014E0002197E2960FACE29704C0220F331F441FEE
:1014F000551F0A94D2F7281739074A075B0748F5A2
:1015000025960CAD1DAD2EAD3FAD25970150104079
:101510002040304025960CAF1DAF2EAF3FAF259732
:1015200018C066247724430121E030E040E050E019
:1015300025962CAF3DAF4EAF5FAF25970DC066240B
:101540007724430125961CAE1DAE1EAE1FAE259717
:1015500003C0662477244301FE01B19688E0DF01D1
:101560001D928A95E9F72596ACACBDACCEACDFAC4C
:101570002597A9A2BAA2CBA2DCA26DA27EA28FA2BD
:1015800098A622962FAD22973AA14BA15CA1662D79
:101590007EA1DFA098A5E196ECACFDAC0EAD1FAD31
:1015A000E197E114F1040105110509F456C02195F4
:1015B00081E0121608F080E03195E1E0131608F0A2
:1015C000E0E0932E981A81E0391508F080E0E82BCE
:1015D0004195F1E0141608F0F0E0A42EAE1A81E077
:1015E0004A1508F080E0F82B5195E1E0151608F057
:1015F000E0E0B52EBF1A81E05B1508F080E0E82B33
:101600006195F1E0161608F0F0E0A62FAE1B81E020
:101610006A1708F080E0F82B7195E1E0171608F0E2
:10162000E0E0C72ECF1A81E07C1508F080E0E82BBF
:101630008D2D8195F1E0181608F0F0E0D82EDE1A15
:10164000E1E08D1508F0E0E0FE2B892F8195392D22
:10165000A5016A2F7C2D982F9F1B8D2DCE58DF4F13
:10166000E2E10C94083AA7E7B0E0E9E3FBE00C9470
:10167000EC39982E892E712E88E0FE013196DF011B
:10168000682E1D926A94E9F729833A834B835C8321
:101690006D837E839F829887FE013996DF011D92BC
:1016A0008A95E9F7A986BA86CB86DC86ED86FE8622
:1016B0000F87188B8D819E81AF81B885B7FD07C0DC
:1016C000E1961CAE1DAE1EAE1FAEE19764C0219523
:1016D00081E0121608F080E0319591E0131608F0D1
:1016E00090E0B32FB81B81E03B1708F080E0982B07
:1016F000419531E0141608F030E0A42FA91B81E0D9
:101700004A1708F080E0382B519591E0151608F043
:1017100090E0F52FF31B81E05F1708F080E0982B35
:10172000619531E0161608F030E0E62FE91B81E004
:101730006E1708F080E0382B719541E0171608F01D
:1017400040E0572F531B81E0751708F080E0482BCD
:10175000892D819591E0181608F090E0682E641AA2
:10176000462D31E0861508F030E0932B882D8195C9
:10177000891B2983BA83AB83FC83ED835E834F830C
:1017800088872FEF3FEF4FEF5FEFE1962CAF3DAF34
:101790004EAF5FAFE1978D859E85AF85B889B7FF66
:1017A0005AC0A19481E01A1408F080E0B19491E04D
:1017B0001B1408F090E06B2D681B81E0B61608F052
:1017C00080E0982BC19421E01C1408F020E05C2DEF
:1017D000591B81E0C51608F080E0282BD19491E0D8
:1017E0001D1408F090E04D2D421B81E0D41608F046
:1017F00080E0982BE19421E01E1408F020E03E2DBB
:10180000391B81E0E31608F080E0282BF19491E089
:101810001F1408F090E07F2D721B272F81E0F71630
:1018200008F080E0982B019511E0101608F010E008
:10183000802F891B982F81E0091708F080E0182B72
:10184000872D8195811BA9866A875B874C873D8799
:101850002E879F87888B99812A813B814C815D816E
:101860006E817F81A885B9851A850B85FC84ED84FE
:10187000DE84CF84B88888E0E9E18E2E912C8C0E2E
:101880009D1EF401682E11926A94E9F7998F2A8FB0
:101890003B8F4C8F5D8F6E8F7F8FA8A39E012F5D36
:1018A0003F4FF90111928A95E9F7B9A31AA30BA347
:1018B000FCA2EDA2DEA2CFA2B8A629A03AA04BA01E
:1018C0005CA0ADA0BEA0CFA0D8A4498D5A8D6B8DD1
:1018D0007C8DE5964FAFE597E6965FAFE697E79686
:1018E0006FAFE797E8967FAFE897E8966CAC7DAC72
:1018F0008EAC9FACE8972D966CAE7DAE8EAE9FAE53
:101900002D978D8D9E8D2F8D38A13C0149016196BB
:101910006CAE7DAE8EAE9FAE6197A114B104C104D2
:10192000D10409F028C3621473048404950408F0F8
:101930000EC100E0201600E0300601E0400600E0A5
:10194000500688F41FEF211631044104510439F088
:1019500030F088E0E82EF12C012D112D18C0EE2476
:10196000FF24870114C020E0221620E0320620E088
:10197000420621E0520630F0B8E1EB2EF12C012DA9
:10198000112D05C0A0E1EA2EF12C012D112DD2015F
:10199000C1010E2C04C0B695A795979587950A941A
:1019A000D2F784569F4FDC012C9180E290E0A0E0BA
:1019B000B0E08E199F09A00BB10B5C016D01A21A5A
:1019C000B108C108D1086596ACAEBDAECEAEDFAEF3
:1019D0006597A114B104C104D10409F445C062960D
:1019E0006FAD6297062E04C0220C331C441C551C9C
:1019F0000A94D2F7A4019301062E04C0220F331FCC
:101A0000441F551F0A94D2F780E290E08A199B097F
:101A1000E896CCACDDACEEACFFACE89704C0F69435
:101A2000E794D794C7948A95D2F787017601E22A82
:101A3000F32A042B152B6196ECAEFDAE0EAF1FAF53
:101A40006197E8960CAD1DAD2EAD3FADE89704C093
:101A5000000F111F221F331F6A95D2F72D960CAF6E
:101A60001DAF2EAF3FAF2D97320188249924A201DC
:101A700091014070507069962CAF3DAF4EAF5FAF93
:101A8000699761966CAD7DAD8EAD9FAD6197A401F8
:101A900093010E94CA397B018C0161966CAD7DADCA
:101AA0008EAD9FAD6197A40193010E94CA39CA010E
:101AB000B90169962CAD3DAD4EAD5FAD69970E9401
:101AC00090399B01AC018701FF24EE242D96ACAC2C
:101AD000BDACCEACDFAC2D97C601AA27BB27570102
:101AE0006801A82AB92ACA2ADB2AA216B306C406A4
:101AF000D50690F4A20CB31CC41CD51CA214B304CC
:101B0000C404D50448F0A216B306C406D50620F4D2
:101B1000A20CB31CC41CD51CA21AB30AC40AD50A51
:101B2000C601B501A40193010E94CA397B018C0151
:101B3000C601B501A40193010E94CA39CA01B901C5
:101B400069962CAD3DAD4EAD5FAD6997C8C121140E
:101B500031044104510471F461E070E080E090E0F0
:101B600020E030E040E050E00E94CA39C901DA01CB
:101B70001C012D0100E0201600E0300601E04006C7
:101B800000E0500688F41FEF21163104410451048F
:101B900039F030F068E0E62EF12C012D112D18C03F
:101BA000EE24FF24870114C020E0221620E0320634
:101BB00020E0420621E0520630F058E1E52EF12CFB
:101BC000012D112D05C040E1E42EF12C012D112D28
:101BD000D201C1010E2C04C0B695A79597958795A3
:101BE0000A94D2F784569F4FDC012C9130E2A32E49
:101BF000B12CC12CD12CD601C5018E199F09A00B87
:101C0000B10B7C018D01E21AF108010911096596F9
:101C1000ECAEFDAE0EAF1FAF6597E114F104010508
:101C2000110539F464015301A218B308C408D5089A
:101C3000ECC06296FFAC6297E496FFAEE4970F2C7F
:101C400004C0220C331C441C551C0A94D2F78A2D64
:101C50008F1964015301082E04C0D694C794B79419
:101C6000A7940A94D2F7A401930104C0220F331F52
:101C7000441F551FFA94D2F7E8966CAC7DAC8EAC3D
:101C80009FACE89704C096948794779467948A955C
:101C9000D2F784017301E22AF32A042B152B29962B
:101CA000ECAEFDAE0EAF1FAF299732018824992408
:101CB00092018101207030706D960CAF1DAF2EAF78
:101CC0003FAF6D97C601B501A40193010E94CA39C7
:101CD0007B018C01C601B501A40193010E94CA39A0
:101CE000CA01B9016D962CAD3DAD4EAD5FAD6D979E
:101CF0000E9490399B01AC018701FF24EE242996B4
:101D0000ACACBDACCEACDFAC2997C601AA27BB27D3
:101D10005C016D01AE28BF28C02AD12AA216B306E5
:101D2000C406D50690F4A20CB31CC41CD51CA21486
:101D3000B304C404D50448F0A216B306C406D506FD
:101D400020F4A20CB31CC41CD51CA21AB30AC40AEA
:101D5000D50AC601B501A40193010E94CA397B01CD
:101D60008C01C601B501A40193010E94CA39CA01C0
:101D7000B9016D962CAD3DAD4EAD5FAD6D970E9436
:101D800090399B01AC018701FF24EE2429968CAD8C
:101D90009DADAEADBFAD2997A070B0705701680181
:101DA000A82AB92ACA2ADB2AA216B306C406D5066F
:101DB00090F4A20CB31CC41CD51CA214B304C4041C
:101DC000D50448F0A216B306C406D50620F4A20C2A
:101DD000B31CC41CD51CE896ECACFDAC0EAD1FAD1D
:101DE000E897E4960FACE49704C0EE0CFF1C001FCC
:101DF000111F0A94D2F72D96ECAEFDAE0EAF1FAFB9
:101E00002D97A21AB30AC40AD50A3201882499244C
:101E10009201810120703070A1960CAF1DAF2EAFE2
:101E20003FAFA197C601B501A40193010E94CA3931
:101E30007B018C01C601B501A40193010E94CA393E
:101E4000CA01B901A1962CAD3DAD4EAD5FADA197D4
:101E50000E9490399B01AC018701FF24EE242D964E
:101E6000ACACBDACCEACDFAC2D97C601AA27BB276E
:101E700057016801A82AB92ACA2ADB2AA216B30682
:101E8000C406D50690F4A20CB31CC41CD51CA21425
:101E9000B304C404D50448F0A216B306C406D5069C
:101EA00020F4A20CB31CC41CD51CA21AB30AC40A89
:101EB000D50AC601B501A40193010E94CA397B016C
:101EC0008C01C601B501A40193010E94CA39CA015F
:101ED000B901A1962CAD3DAD4EAD5FADA1970E946D
:101EE00090399B01AC018701FF24EE242D968CAD27
:101EF0009DADAEADBFAD2D97A070B070E82AF92AA8
:101F00000A2B1B2BE216F3060407150790F4E20CCC
:101F1000F31C041D151DE214F3040405150548F017
:101F2000E216F3060407150720F4E20CF31C041D67
:101F3000151DE21AF30A040B150BD801C7016296AE
:101F40000FAC629704C0B695A795979587950A94AC
:101F5000D2F789A79AA7ABA7BCA71DA61EA61FA646
:101F600018AA898B8AA58A8B8BA58B8B8CA58C8BC9
:101F70008DA58D8B2FC36A147B048C049D0448F4BB
:101F8000498B5A8B6B8B7C8B8D8B9E8B2F8B388FD9
:101F900027C300E0A01600E0B00601E0C00600E0A4
:101FA000D00688F41FEFA116B104C104D10439F0A2
:101FB00030F028E0E22EF12C012D112D18C0EE2476
:101FC000FF24870114C020E0A21620E0B20620E022
:101FD000C20621E0D20630F098E1E92EF12C012D65
:101FE000112D05C080E1E82EF12C012D112DD60117
:101FF000C5010E2C04C0B695A795979587950A94B0
:10200000D2F784569F4FDC012C9180E290E0A0E053
:10201000B0E08E199F09A00BB10B821B9109A10999
:10202000B1090097A105B10509F059C0A614B7047C
:10203000C804D90470F0E896ECACFDAC0EAD1FAD51
:10204000E897E214F3040405150518F4D801C70154
:102050002FC0E8968CAD9DADAEADBFADE8978219AF
:102060009309A409B509A40193012A193B094C0954
:102070005D09AA24BB246501E8966CAC7DAC8EACEE
:102080009FACE897681679068A069B0628F411E04B
:10209000A12EB12CC12CD12C79018A01EA18FB08A0
:1020A0000C091D096196ECAEFDAE0EAF1FAF619736
:1020B00089A79AA7ABA7BCA761960CAD1DAD2EADA5
:1020C0003FAD61970DA71EA72FA738AB898B8AA5B7
:1020D0008A8B8BA58B8B8CA58C8B0D8B7BC2E3960F
:1020E0008FAFE397A6019501082E04C0220F331F7E
:1020F000441F551F0A94D2F710E2181BE2961FAF37
:10210000E297D201C101012E04C0B695A79597951B
:1021100087950A94D2F75C016D01A22AB32AC42ADA
:10212000D52A2596ACAEBDAECEAEDFAE25977201F8
:102130006101E3960FACE39704C0CC0CDD1CEE1CF0
:10214000FF1C0A94D2F72196CCAEDDAEEEAEFFAE08
:10215000219764015301012E04C0D694C794B7940B
:10216000A7940A94D2F7A4019301E3960FACE397E6
:1021700004C0220F331F441F551F0A94D2F7E8965C
:102180008CAD9DADAEADBFADE89704C0B695A7953B
:10219000979587951A95D2F77C018D01E22AF32A4B
:1021A000042B152BE9AEFAAE0BAF1CAFE8960CADC5
:1021B0001DAD2EAD3FADE897E3960FACE39704C09D
:1021C000000F111F221F331F0A94D2F70DAB1EAB55
:1021D0002FAB38AF25962CAD3DAD4EAD5FAD2597FD
:1021E0003A018824992440705070A5962CAF3DAFD9
:1021F0004EAF5FAFA597C601B501A40193010E9440
:10220000CA397B018C01C601B501A40193010E946A
:10221000CA39C901DA011C012D01C201B101A5961B
:102220002CAD3DAD4EAD5FADA5970E9490399B01A1
:10223000AC018701FF24EE24A9ACBAACCBACDCAC7A
:10224000C601AA27BB2757016801A82AB92ACA2AAA
:10225000DB2AA216B306C406D50610F50894210899
:102260003108410851082596ECACFDAC0EAD1FAD10
:102270002597AE0CBF1CC01ED11EAE14BF04C006F5
:10228000D10670F0A216B306C406D50648F4089429
:102290002108310841085108AE0CBF1CC01ED11ED8
:1022A000A21AB30AC40AD50AC601B501A401930152
:1022B0000E94CA397B018C01C601B501A4019301BA
:1022C0000E94CA39C901DA013C014D01C401B301C0
:1022D000A5962CAD3DAD4EAD5FADA5970E94903952
:1022E0009B01AC018701FF24EE2489AD9AADABAD13
:1022F000BCADA070B07057016801A82AB92ACA2ADB
:10230000DB2AA216B306C406D50610F508946108A8
:1023100071088108910825966CAD7DAD8EAD9FAD9D
:102320002597A60EB71EC81ED91EA616B706C80644
:10233000D90670F0A216B306C406D50648F4089470
:102340006108710881089108A60EB71EC81ED91E23
:10235000D601C501821B930BA40BB50B89AB9AABBD
:10236000ABABBCABD1019927882784017301E82A64
:10237000F92A0A2B1B2B8FEFA82E8FEFB82EC12C1A
:10238000D12CAE20BF20C022D122780100271127F6
:1023900021966CAC7DAC8EAC9FAC21972FEF3FEFBC
:1023A00040E050E0622273228422952221966CAD97
:1023B0007DAD8EAD9FAD2197AC0166277727AD9699
:1023C0004CAF5DAF6EAF7FAFAD97C601B501A40155
:1023D00093010E949039A9966CAF7DAF8EAF9FAFED
:1023E000A997C601B501AD962CAD3DAD4EAD5FAD23
:1023F000AD970E9490391B012C01C801B701A401BF
:1024000093010E9490395B016C01C801B701AD9640
:102410002CAD3DAD4EAD5FADAD970E9490397B01C7
:102420008C01A6019501220D331D441D551DA99651
:102430006CAC7DAC8EAC9FACA997C401AA27BB271E
:10244000280F391F4A1F5B1F2A153B054C055D05E8
:1024500048F4812C912CE1E0AE2EB12CE80CF91C53
:102460000A1D1B1DCA01AA27BB2757016801A80E18
:10247000B91ECA1EDB1EA90133272227A9968CADDF
:102480009DADAEADBFADA997A070B070280F391F3C
:102490004A1F5B1FE9A8FAA80BA91CA9EA14FB04B0
:1024A0000C051D0570F0AE14BF04C006D10689F5F9
:1024B0006DA97EA98FA998AD621773078407950748
:1024C00040F5DA01C90121966CAC7DAC8EAC9FACB5
:1024D000219786199709A809B9092596ECACFDAC96
:1024E0000EAD1FAD2597AE18BF08C00AD10AEE2465
:1024F000FF248701281739074A075B0728F421E0E2
:10250000E22EF12C012D112DAE18BF08C00AD10A00
:1025100002C0DA01C9016DA87EA88FA898AC681A1C
:10252000790A8A0A9B0A09A91AA92BA93CA90A199E
:102530001B092C093D09580169012224332421017A
:102540002DA93EA94FA958AD2615370548055905AF
:1025500028F481E0282E312C412C512C8601750164
:10256000E218F30804091509A8019701E2960FACD7
:10257000E29704C0220F331F441F551F0A94D2F75D
:10258000D401C301E3960FACE39704C0B695A795B9
:10259000979587950A94D2F7282B392B4A2B5B2BDA
:1025A00029A73AA74BA75CA7E3960FACE39704C013
:1025B00016950795F794E7940A94D2F7EDA6FEA630
:1025C0000FA718AB298B8AA58A8B8BA58B8B8CA523
:1025D0008C8BED8A8EA58E8B8FA58F8B88A9888F8B
:1025E000E1964CAD5DAD6EAD7FADE1974115510506
:1025F0006105710509F467C089892A893B894C897D
:102600005D89AE89BF89188DF82FF19591E01F166D
:1026100008F090E0822F819521E0181608F020E064
:10262000E82FE91B91E08E1708F090E0292B832F0B
:10263000819531E0181608F030E0782F721B91E098
:10264000871708F090E0392B842F819521E0181628
:1026500008F020E0682F631B91E0861708F090E0F7
:10266000292B852F819531E0181608F030E0582F7E
:10267000521B91E0851708F090E0392B8A2F819545
:1026800021E0181608F020E0482F431B91E0841742
:1026900008F090E0292B8B2F819591E0181608F017
:1026A00090E0382F321B21E0831708F020E0922BB6
:1026B000812F8195891BF98BEA8B7B8B6C8B5D8BD2
:1026C0004E8B3F8B888F29893A894B895C896D892C
:1026D0007E898F89988DC958DF4FE2E10C94083AC2
:1026E000A0E0B0E0E6E7F3E10C94EC39DC012B016B
:1026F000FA019C91923008F439C1EB018881823053
:1027000008F433C1943069F4843009F02FC1119674
:102710009C9111978981981709F428C1A4E9B0E028
:1027200025C1843009F421C18230A9F4923009F026
:102730001DC19A01AD0188E0EA010990AE01E901ED
:1027400009929E018150C1F7E201898111969C9105
:102750008923818308C1923009F407C112962D9014
:102760003C901397EB018A819B811496AD90BD90AC
:10277000CD90DC901797EC80FD800E811F81910138
:10278000281B390BB90137FF04C066277727621B66
:10279000730B603271050CF061C0121613066CF5F4
:1027A00037014801062E04C0969487947794679465
:1027B0000A94D2F721E030E040E050E004C0220F5C
:1027C000331F441F551F6A95D2F7215030404040B7
:1027D00050402E213F214023512321153105410531
:1027E000510521F021E030E040E050E079018A011C
:1027F000E628F728082919293CC0232BD1F1260EF9
:10280000371E35014601062E04C0969487947794AE
:1028100067940A94D2F721E030E040E050E004C031
:10282000220F331F441F551F6A95D2F721503040A5
:10283000404050402A213B214C215D21211531058A
:102840004105510521F021E030E040E050E0590120
:102850006A01A628B728C828D9280BC08215930575
:102860002CF01C01AA24BB24650103C0EE24FF2424
:10287000870111969C91D20111968C91981709F4B9
:1028800045C0992339F0A80197012A193B094C0941
:102890005D0906C0A60195012E193F09400B510B99
:1028A00057FD08C0118233822282248335834683F8
:1028B00057831DC081E08183338222828827992734
:1028C000DC01821B930BA40BB50B84839583A68339
:1028D000B7830DC0220F331F441F551F2483358338
:1028E00046835783828193810197938382832481D6
:1028F000358146815781DA01C9010197A109B109E2
:102900008F5F9F4FAF4FBF4328F30BC0918333823C
:102910002282EA0CFB1C0C1D1D1DE482F58206833D
:10292000178383E08083248135814681578157FF57
:102930001AC0C901AA2797FDA095BA2F817090707F
:10294000A070B0705695479537952795822B932B9D
:10295000A42BB52B84839583A683B783828193812F
:10296000019693838283DF0101C0D201CD01CDB7EF
:10297000DEB7E2E10C94083AA0E2B0E0E2ECF4E168
:102980000C94F83969837A838B839C832D833E83EF
:102990004F835887E9E0EE2EF12CEC0EFD1ECE01A0
:1029A0000196B7010E94841A8E010F5E1F4FCE015F
:1029B0000596B8010E94841A8A8991E089278A8B3A
:1029C000C701B801AE01475E5F4F0E9470130E94BD
:1029D000AF19A096E6E00C94143AA0E2B0E0E3EF61
:1029E000F4E10C94F83969837A838B839C832D837B
:1029F0003E834F835887F9E0EF2EF12CEC0EFD1E3D
:102A0000CE010196B7010E94841A8E010F5E1F4FFE
:102A1000CE010596B8010E94841AC701B801AE0123
:102A2000475E5F4F0E9470130E94AF19A096E6E0C8
:102A30000C94143AA0E2B0E0E0E2F5E10C94EC3939
:102A400069837A838B839C832D833E834F8358874E
:102A5000CE010196BE01675F7F4F0E94841ACE01AE
:102A60000596BE016F5E7F4F0E94841A9985923051
:102A700088F089898230C8F0943019F4823051F49A
:102A800004C0843029F4923081F484E990E0C6C017
:102A9000923049F420E09A858A89981321E02A87A8
:102AA000CE010996BBC0823049F420E09A858A891C
:102AB000981321E02A8BCE014196B0C02D843E842C
:102AC0004F8458886D887E888F88988CEE24FF24E8
:102AD0008701AA24BB24650140E050E060E070E07B
:102AE000E0E0F0E0C10181709070892BE9F0E60C24
:102AF000F71C081D191D9A01AB012A0D3B1D4C1D29
:102B00005D1D80E090E0A0E0B0E0E614F704080569
:102B1000190520F481E090E0A0E0B0E0BA01A9013D
:102B2000480F591F6A1F7B1FAA0CBB1CCC1CDD1C45
:102B300097FE08C081E090E0A0E0B0E0A82AB92AA2
:102B4000CA2ADB2A3196E032F10549F0660C771C7F
:102B5000881C991C5694479437942794C3CFFA85C0
:102B6000EA892B893C898B859C85280F391F2E5F2C
:102B70003F4F17C0CA0181709070892B61F0169584
:102B80000795F794E79480E090E0A0E0B0E8E82AA9
:102B9000F92A0A2B1B2B76956795579547952F5F3A
:102BA0003F4F77FDE7CF0CC0440F551F661F771FBF
:102BB00017FD4160EE0CFF1C001F111F215030401B
:102BC000403090E0590790E0690790E4790760F39E
:102BD0002B8F3C8FDB01CA018F779070A070B07093
:102BE00080349105A105B10561F447FD0AC0E114E7
:102BF000F1040105110529F0405C5F4F6F4F7F4FD5
:102C000040781A8EFE1711F081E08A8F4D8F5E8F0B
:102C10006F8F78A383E0898FCE0149960E94AF1908
:102C2000A096E2E10C94083AA8E1B0E0EAE1F6E10E
:102C30000C94F43969837A838B839C832D833E8340
:102C40004F835887B9E0EB2EF12CEC0EFD1ECE0120
:102C50000196B7010E94841A8E010F5E1F4FCE01AC
:102C60000596B8010E94841A2985223008F47EC096
:102C70003989323010F4B8017CC08A859A89892755
:102C80008A87243011F0223031F4231709F06EC006
:102C900064E970E06EC0343039F41D861E861F86EC
:102CA000188A1C861B8604C0323021F484E0898790
:102CB000B7015FC02B853C858B899C89281B390B0C
:102CC0003C872B87ED84FE840F851889AD88BE88EC
:102CD000CF88D88CEA14FB040C051D0540F4EE0CDB
:102CE000FF1C001F111F215030403C872B8720E024
:102CF00030E040E050E080E090E0A0E0B0E460E050
:102D000070E0EA14FB040C051D0540F0282B392B5C
:102D10004A2B5B2BEA18FB080C091D09B695A795F1
:102D200097958795EE0CFF1C001F111F6F5F7F4F5B
:102D30006F31710531F7DA01C9018F779070A0709A
:102D4000B07080349105A105B10561F427FD0AC07A
:102D5000E114F1040105110529F0205C3F4F4F4FAC
:102D60005F4F20782D873E874F87588BBE01675F66
:102D70007F4FCB010E94AF196896EAE00C94103A9D
:102D8000A8E1B0E0E6ECF6E10C94F83969837A83C7
:102D90008B839C832D833E834F83588789E0E82E65
:102DA000F12CEC0EFD1ECE010196B7010E94841A93
:102DB0008E010F5E1F4FCE010596B8010E94841A46
:102DC0008985823040F08989823028F0C701B801B6
:102DD0000E94FC1A01C081E06896E6E00C94143A67
:102DE000A8E1B0E0E6EFF6E10C94F83969837A8364
:102DF0008B839C832D833E834F83588789E0E82E05
:102E0000F12CEC0EFD1ECE010196B7010E94841A32
:102E10008E010F5E1F4FCE010596B8010E94841AE5
:102E20008985823040F08989823028F0C701B80155
:102E30000E94FC1A01C081E06896E6E00C94143A06
:102E4000A8E1B0E0E6E2F7E10C94F83969837A830F
:102E50008B839C832D833E834F83588789E0E82EA4
:102E6000F12CEC0EFD1ECE010196B7010E94841AD2
:102E70008E010F5E1F4FCE010596B8010E94841A85
:102E80008985823040F08989823028F0C701B801F5
:102E90000E94FC1A01C08FEF6896E6E00C94143A89
:102EA000A8E1B0E0E6E5F7E10C94F83969837A83AC
:102EB0008B839C832D833E834F83588789E0E82E44
:102EC000F12CEC0EFD1ECE010196B7010E94841A72
:102ED0008E010F5E1F4FCE010596B8010E94841A25
:102EE0008985823040F08989823028F0C701B80195
:102EF0000E94FC1A01C08FEF6896E6E00C94143A29
:102F0000A8E1B0E0E6E8F7E10C94F83969837A8348
:102F10008B839C832D833E834F83588789E0E82EE3
:102F2000F12CEC0EFD1ECE010196B7010E94841A11
:102F30008E010F5E1F4FCE010596B8010E94841AC4
:102F40008985823040F08989823028F0C701B80134
:102F50000E94FC1A01C081E06896E6E00C94143AE5
:102F6000A8E0B0E0E6EBF7E10C94F5399B01AC0189
:102F700083E08983DA01C9018827B7FD8395992702
:102F8000AA27BB27B82E211531054105510519F493
:102F900082E089833AC08823A9F0203080E0380796
:102FA00080E0480780E8580729F460E070E080E09E
:102FB0009FEC30C0EE24FF248701E21AF30A040BD1
:102FC000150B02C079018A018EE1C82ED12CDC825A
:102FD000CB82ED82FE820F831887C801B7010E9461
:102FE000601901971816190684F4082E04C0EE0C17
:102FF000FF1C001F111F0A94D2F7ED82FE820F837F
:103000001887C81AD90ADC82CB82BA82CE0101960F
:103010000E94AF192896E9E00C94113AACE0B0E0B8
:10302000E4E1F8E10C94FC3969837A838B839C8317
:10303000CE010196BE016B5F7F4F0E94841A8D8185
:10304000823061F1823050F1843021F48E81882306
:1030500051F12EC02F81388537FD20C06E812F3170
:1030600031051CF06623F9F023C08EE190E0821B4D
:10307000930B29853A854B855C8504C05695479509
:10308000379527958A95D2F76623B1F050954095EC
:10309000309521953F4F4F4F5F4F0EC020E030E0FD
:1030A00040E050E009C02FEF3FEF4FEF5FE704C073
:1030B00020E030E040E050E8B901CA012C96E2E09F
:1030C0000C94183AA8E0B0E0E8E6F8E10C94F43982
:1030D0007B018C01611571058105910519F482E070
:1030E000898360C083E089838EE1C82ED12CDC8285
:1030F000CB82ED82FE820F831887C801B7010E9440
:103100006019FC013197F7FF3BC0222733272E1BA4
:103110003F0B57016801022E04C0D694C794B794A0
:10312000A7940A94D2F740E050E060E070E081E0BC
:1031300090E0A0E0B0E004C0880F991FAA1FBB1F59
:103140002A95D2F70197A109B1098E219F21A023C9
:10315000B1230097A105B10521F041E050E060E006
:1031600070E04A295B296C297D294D835E836F833A
:1031700078878EE190E08E1B9F0B9C838B8312C01F
:10318000309781F00E2E04C0EE0CFF1C001F111FA3
:103190000A94D2F7ED82FE820F831887CE1ADF0AD7
:1031A000DC82CB821A82CE0101960E94AF1928964A
:1031B000EAE00C94103AEF92FF920F93DF93CF93D3
:1031C000CDB7DEB760970FB6F894DEBF0FBECDBFA8
:1031D000A82F002309F467C07E010894E11CF11CAC
:1031E00088E0F70111928A95E9F729833A834B83A6
:1031F0005C836D837E83AF83988780E2801B4D81E3
:103200005E816F817885E82FFF27E7FDF09518161E
:10321000B4F0DB01CA01BB0F880B982FDC018D874E
:103220009E87AF87B88B882799278E1B9F0B04C07A
:1032300075956795579547958A95D2F728C0202FA1
:10324000332727FD3095DB01CA01022E04C0B59556
:10325000A795979587950A94D2F78D879E87AF8714
:10326000B88B04C0440F551F661F771FEA95D2F72D
:1032700089819A81AB81BC8104C0B695A795979549
:1032800087952A95D2F7482B592B6A2B7B2B498798
:103290005A876B877C8729853A854B855C856D8548
:1032A0007E85AF8598898A2F60960FB6F894DEBF29
:1032B0000FBECDBFCF91DF910F91FF90EF9008959A
:1032C000EF92FF920F931F937B018C0180E0E81631
:1032D00080E0F80681E0080780E0180788F48FEFA7
:1032E000E816F1040105110531F028F088E090E0BE
:1032F000A0E0B0E017C080E090E0A0E0B0E012C035
:1033000080E0E81680E0F80680E0080781E0180712
:1033100028F088E190E0A0E0B0E004C080E190E017
:10332000A0E0B0E020E230E040E050E0281B390BA4
:103330004A0B5B0B04C016950795F794E7948A95A2
:10334000D2F7F701E456FF4F8081281B310941096C
:103350005109C9011F910F91FF90EF900895DF92DD
:10336000EF92FF920F931F93FC01E480F58006819A
:103370001781D1808081823048F480E090E0A0E124
:10338000B0E0E82AF92A0A2B1B2BA5C0843009F4E7
:103390009FC0823021F4EE24FF24870105C0E11490
:1033A000F1040105110519F4E0E0F0E096C0628136
:1033B00073819FEF623879070CF05BC022E83FEF22
:1033C000261B370B2A3131052CF020E030E040E09D
:1033D00050E02AC0B801A701022E04C07695679577
:1033E000579547950A94D2F781E090E0A0E0B0E0CD
:1033F00004C0880F991FAA1FBB1F2A95D2F70197F7
:10340000A109B1098E219F21A023B1230097A10515
:10341000B10521F081E090E0A0E0B0E09A01AB01BD
:10342000282B392B4A2B5B2BDA01C9018F7790703F
:10343000A070B07080349105A105B10539F427FF63
:1034400009C0205C3F4F4F4F5F4F04C0215C3F4F8E
:103450004F4F5F4FE0E0F0E02030A0E03A07A0E0FF
:103460004A07A0E45A0710F0E1E0F0E079018A0190
:1034700027C06038710564F5FB01E158FF4FD801A2
:10348000C7018F779070A070B07080349105A1054E
:10349000B10539F4E7FE0DC080E490E0A0E0B0E0B3
:1034A00004C08FE390E0A0E0B0E0E80EF91E0A1F30
:1034B0001B1F17FF05C016950795F794E7943196E3
:1034C00087E016950795F794E7948A95D1F705C09C
:1034D000EE24FF248701EFEFF0E06E2F679566275B
:1034E0006795902F9F77D794DD24D7948E2F86955C
:1034F000492F462B582F5D29B701CA011F910F9103
:10350000FF90EF90DF900895FC01DB014081518135
:103510002281622F6F7770E0221F2227221F938162
:10352000892F880F822B282F30E0991F9927991F08
:1035300011969C93119721153105A9F54115510557
:103540006105710511F482E037C082E89FEF1396A0
:103550009C938E9312979A01AB0167E0220F331F61
:10356000441F551F6A95D1F783E08C930DC0220F3D
:10357000331F441F551F12968D919C9113970197ED
:1035800013969C938E931297203080E0380780E04A
:10359000480780E4580758F314962D933D934D93B4
:1035A0005C93179708952F3F310579F44115510524
:1035B0006105710519F484E08C93089564FF03C0DC
:1035C00081E08C9312C01C9210C02F57304013968C
:1035D0003C932E93129783E08C9387E0440F551F02
:1035E000661F771F8A95D1F7706414964D935D938B
:1035F0006D937C93179708951F93DC01FB019C91B9
:10360000923008F447C08081823008F443C094307F
:1036100051F411961C91843099F58181682F70E0E6
:10362000611B71093FC0843021F0923031F4823047
:10363000B9F18181882389F12DC011961C911197D0
:103640008230F1F081811817D9F412962D913C91B6
:103650001397828193818217930794F02817390773
:10366000BCF014968D919D910D90BC91A02D24815C
:10367000358146815781281739074A075B0718F4B7
:10368000112341F00AC082179307A407B50740F43D
:10369000112319F061E070E005C06FEF7FEF02C009
:1036A00060E070E0CB011F910895DF93CF93CDB719
:1036B000DEB7A3E5B0E0E3E5F0E080818F7B8C939B
:1036C000A3E5B0E0E3E5F0E0808188608C93ECE571
:1036D000F0E08AEF8083A9E5B0E0E9E5F0E08081E1
:1036E00082608C93A3E5B0E0E3E5F0E080818F7E1B
:1036F0008C93A3E5B0E0E3E5F0E080818F7D8C93CF
:10370000A3E5B0E0E3E5F0E08081887F8C93A3E55A
:10371000B0E0E3E5F0E0808182608C93CF91DF91AF
:103720000895DF93CF930F92CDB7DEB78983ECE591
:10373000F0E0898180830F90CF91DF910895DF932E
:10374000CF930F92CDB7DEB78983E2E5F0E08981B0
:1037500080830F90CF91DF910895DF93CF93CDB702
:10376000DEB7E2E5F0E08081CF91DF910895DF934D
:10377000CF9300D0CDB7DEB789838981813041F402
:10378000A9E5B0E0E9E5F0E080818D7F8C930EC083
:103790008981882341F4A9E5B0E0E9E5F0E0808182
:1037A00082608C9303C081E08A8301C01A828A817F
:1037B0000F900F90CF91DF910895DF93CF9300D0BA
:1037C000CDB7DEB789838981813041F4A9E5B0E0C6
:1037D000E9E5F0E080818E7F8C930EC0898188239B
:1037E00041F4A9E5B0E0E9E5F0E0808181608C93E7
:1037F00003C081E08A8301C01A828A810F900F90F2
:10380000CF91DF910895DF93CF93CDB7DEB7AFE4CB
:10381000B0E0EFE4F0E080818E7F8C93AFE4B0E025
:10382000EFE4F0E0808182608C93AEE4B0E0EEE4FF
:10383000F0E0808188608C93AEE4B0E0EEE4F0E0EC
:10384000808180618C93AFE4B0E0EFE4F0E08081B0
:103850008F7B8C93AFE4B0E0EFE4F0E08081806890
:103860008C93AFE4B0E0EFE4F0E080818F7E8C9346
:10387000AFE4B0E0EFE4F0E0808180628C93EAE4B2
:10388000F0E087EE93E091838083E8E4F0E080EC61
:1038900090E091838083A9E5B0E0E9E5F0E08081E4
:1038A00084608C93A9E5B0E0E9E5F0E08081806177
:1038B0008C93A9E5B0E0E9E5F0E0808188608C9325
:1038C000E6E4F0E080E29EE491838083A9E5B0E045
:1038D000E9E5F0E0808180628C93AEE4B0E0EEE454
:1038E000F0E080818F7B8C93AEE4B0E0EEE4F0E01A
:1038F0008081887F8C93AEE4B0E0EEE4F0E08081DC
:1039000082608C93CF91DF910895DF93CF9300D0A5
:1039100000D0CDB7DEB789837B836A838981882312
:1039200039F4EAE4F0E08A819B81918380830DC0C1
:103930008981813039F4E8E4F0E08A819B819183C8
:10394000808303C081E08C8301C01C828C810F9036
:103950000F900F900F90CF91DF910895DF93CF9349
:103960000F92CDB7DEB78983ECE4F0E08981882F30
:1039700090E0918380830F90CF91DF910895DF9342
:10398000CF93CDB7DEB7ECE4F0E080819181CF91A9
:10399000DF910895DF93CF9300D0CDB7DEB7898351
:1039A0008981813041F4A9E5B0E0E9E5F0E080816A
:1039B0008B7F8C930EC08981882341F4A9E5B0E008
:1039C000E9E5F0E0808184608C9303C081E08A8324
:1039D00001C01A828A810F900F90CF91DF910895D4
:1039E000DF93CF9300D00F92CDB7DEB789836A8380
:1039F0008981882331F08981813019F081E08B83BE
:103A000032C08A81813031F08A81882319F081E0C7
:103A10008B8329C08981882399F48A81813041F47C
:103A2000A9E5B0E0E9E5F0E080818F7E8C931AC0D3
:103A3000A9E5B0E0E9E5F0E0808180618C9312C0F7
:103A40008A81813041F4A9E5B0E0E9E5F0E08081C8
:103A5000877F8C9307C0A9E5B0E0E9E5F0E08081BD
:103A600088608C931B828B810F900F900F90CF9169
:103A7000DF910895DF93CF9300D0CDB7DEB7898370
:103A80008981813041F4A9E5B0E0E9E5F0E0808189
:103A90008F7D8C930EC08981882341F4A9E5B0E025
:103AA000E9E5F0E0808180628C9303C081E08A8345
:103AB00001C01A828A810F900F90CF91DF910895F3
:103AC000DF93CF93CDB7DEB7A5E4B0E0E5E4F0E057
:103AD00080818F7B8C93A5E4B0E0E5E4F0E0808109
:103AE000877F8C93E4E4F0E080EC90E09183808326
:103AF000A9E5B0E0E9E5F0E0808180648C93A5E47D
:103B0000B0E0E5E4F0E080818F7E8C93A5E4B0E046
:103B1000E5E4F0E080818F7D8C93A5E4B0E0E5E4FE
:103B2000F0E08081887F8C93A5E4B0E0E5E4F0E0EC
:103B3000808182608C93CF91DF910895DF93CF9342
:103B40000F92CDB7DEB78983E3E4F0E08981882F57
:103B500090E0918380830F90CF91DF910895DF9360
:103B6000CF930F92CDB7DEB78983E4E4F0E089818B
:103B7000882F90E0918380830F90CF91DF910895FB
:103B8000DF93CF93CDB7DEB7E4E4F0E0808191819D
:103B9000CF91DF910895DF93CF9300D0CDB7DEB7FB
:103BA00089838981813041F4A9E5B0E0E9E5F0E05D
:103BB00080818F778C930EC08981882341F4A9E599
:103BC000B0E0E9E5F0E0808180688C9303C081E09B
:103BD0008A8301C01A828A810F900F90CF91DF9162
:103BE0000895DF93CF9300D0CDB7DEB78983898165
:103BF000813041F4A9E5B0E0E9E5F0E080818F7B18
:103C00008C930EC08981882341F4A9E5B0E0E9E5F1
:103C1000F0E0808180648C9303C081E08A8301C0DE
:103C20001A828A810F900F90CF91DF910895DF93D0
:103C3000CF93CDB7DEB7AEE4B0E0EEE4F0E0808144
:103C40008F7B8C93A9E5B0E0E9E5F0E080818062AC
:103C50008C93CF91DF910895DF93CF9300D0CDB7B0
:103C6000DEB789838981813041F4AEE4B0E0EEE4CF
:103C7000F0E0808180648C930EC08981882341F4B8
:103C8000AEE4B0E0EEE4F0E080818F7B8C9303C083
:103C900081E08A8301C01A828A810F900F90CF91B0
:103CA000DF910895DF93CF9300D0CDB7DEB789833E
:103CB0008981813041F4A9E5B0E0E9E5F0E0808157
:103CC0008F7D8C930EC08981882341F4A9E5B0E0F3
:103CD000E9E5F0E0808180628C9303C081E08A8313
:103CE00001C01A828A810F900F90CF91DF910895C1
:103CF000DF93CF93CDB7DEB7E6E4F0E0808191812A
:103D0000CF91DF910895DF93CF9300D000D0CDB74E
:103D1000DEB79A8389836B8389819A81009719F42E
:103D200082E08C8313C08B81883018F081E08C8313
:103D30000DC08B81882F90E0880F991FFC01E456FD
:103D4000FE4F89819A81918380831C828C810F90A0
:103D50000F900F900F90CF91DF9108951F920F92C7
:103D60000FB60F9211242F933F934F935F936F934E
:103D70007F938F939F93AF93BF93EF93FF93DF93C3
:103D8000CF93CDB7DEB780919C0190919D010097B4
:103D900029F0E0919C01F0919D010995CF91DF916F
:103DA000FF91EF91BF91AF919F918F917F916F9113
:103DB0005F914F913F912F910F900FBE0F901F90E9
:103DC00018951F920F920FB60F9211242F933F93C5
:103DD0004F935F936F937F938F939F93AF93BF9313
:103DE000EF93FF93DF93CF93CDB7DEB780919E0122
:103DF00090919F01009729F0E0919E01F0919F0121
:103E00000995CF91DF91FF91EF91BF91AF919F9174
:103E10008F917F916F915F914F913F912F910F9073
:103E20000FBE0F901F9018951F920F920FB60F9212
:103E300011242F933F934F935F936F937F938F93AF
:103E40009F93AF93BF93EF93FF93DF93CF93CDB740
:103E5000DEB78091A0019091A101009729F0E09137
:103E6000A001F091A1010995CF91DF91FF91EF9110
:103E7000BF91AF919F918F917F916F915F914F9182
:103E80003F912F910F900FBE0F901F9018951F928A
:103E90000F920FB60F9211242F933F934F935F937E
:103EA0006F937F938F939F93AF93BF93EF93FF9302
:103EB000DF93CF93CDB7DEB78091A4019091A50198
:103EC000009729F0E091A401F091A5010995CF9107
:103ED000DF91FF91EF91BF91AF919F918F917F9172
:103EE0006F915F914F913F912F910F900FBE0F9067
:103EF0001F9018951F920F920FB60F9211242F93B7
:103F00003F934F935F936F937F938F939F93AF9361
:103F1000BF93EF93FF93DF93CF93CDB7DEB780913D
:103F2000A2019091A301009729F0E091A201F091E4
:103F3000A3010995CF91DF91FF91EF91BF91AF91CF
:103F40009F918F917F916F915F914F913F912F91B1
:103F50000F900FBE0F901F9018951F920F920FB6E3
:103F60000F9211242F933F934F935F936F937F93FF
:103F70008F939F93AF93BF93EF93FF93DF93CF9371
:103F8000CDB7DEB78091A6019091A701009729F0E7
:103F9000E091A601F091A7010995CF91DF91FF91E2
:103FA000EF91BF91AF919F918F917F916F915F91B1
:103FB0004F913F912F910F900FBE0F901F9018952A
:103FC0001F920F920FB60F9211242F933F934F938E
:103FD0005F936F937F938F939F93AF93BF93EF9371
:103FE000FF93DF93CF93CDB7DEB78091A801909177
:103FF000A901009729F0E091A801F091A901099584
:10400000CF91DF91FF91EF91BF91AF919F918F91F0
:104010007F916F915F914F913F912F910F900FBEC4
:104020000F901F9018951F920F920FB60F921124A8
:104030002F933F934F935F936F937F938F939F93B0
:10404000AF93BF93EF93FF93DF93CF93CDB7DEB7DB
:104050008091AA019091AB01009729F0E091AA010B
:10406000F091AB010995CF91DF91FF91EF91BF9155
:10407000AF919F918F917F916F915F914F913F9100
:104080002F910F900FBE0F901F901895DF93CF9335
:10409000CDB7DEB7EAE3F0E08FE18083E7E3F0E05D
:1040A0008FEA8083E4E3F0E08FEF8083E1E3F0E0E8
:1040B00083E28083EBE3F0E08FE08083E8E3F0E0ED
:1040C00084E18083E5E3F0E01082E2E3F0E0108237
:1040D000CF91DF910895DF93CF93CDB7DEB7AFE5F2
:1040E000B0E0EFE5F0E0808180688C93CF91DF91C4
:1040F0000895DF93CF93CDB7DEB7AFE5B0E0EFE53E
:10410000F0E080818F778C93CF91DF910895DF93DA
:10411000CF9300D000D0CDB7DEB789836A83898181
:10412000833040F48A81843028F481E090E09C83DD
:104130008B8302C01C821B828B810F900F900F908B
:104140000F90CF91DF910895DF93CF93CDB7DEB776
:104150002B970FB6F894DEBF0FBECDBF8A836B835B
:1041600019828A816B810E948720882309F400C10B
:104170008A81282F30E03B872A878A859B8581307A
:10418000910509F46CC02A853B852230310509F47C
:10419000C7C08A859B85009709F0ECC08B81282FCA
:1041A00030E039872887888599858130910591F19C
:1041B00028853985223031052CF48885998500972A
:1041C000C1F145C02885398522303105A1F08885A7
:1041D000998583309105D9F5A5E5B0E0E5E5F0E0F6
:1041E00080818E7F8C93A5E5B0E0E5E5F0E08081ED
:1041F0008D7F8C932CC0A5E5B0E0E5E5F0E08081F3
:1042000081608C93A5E5B0E0E5E5F0E080818D7FED
:104210008C931DC0A5E5B0E0E5E5F0E080818E7FE0
:104220008C93A5E5B0E0E5E5F0E0808182608C93B9
:104230000EC0A5E5B0E0E5E5F0E0808181608C93FB
:10424000A5E5B0E0E5E5F0E0808182608C93ABE528
:10425000B0E0EBE5F0E0808180648C938BC08B81D3
:10426000282F30E03F832E838E819F8181309105FE
:1042700091F12E813F81223031052CF48E819F8176
:104280000097C1F145C02E813F8122303105A1F058
:104290008E819F8183309105D9F5A5E5B0E0E5E5F4
:1042A000F0E080818B7F8C93A5E5B0E0E5E5F0E060
:1042B0008081877F8C932CC0A5E5B0E0E5E5F0E038
:1042C000808184608C93A5E5B0E0E5E5F0E0808135
:1042D000877F8C931DC0A5E5B0E0E5E5F0E0808127
:1042E0008B7F8C93A5E5B0E0E5E5F0E08081886008
:1042F0008C930EC0A5E5B0E0E5E5F0E08081846038
:104300008C93A5E5B0E0E5E5F0E0808188608C93D2
:10431000ABE5B0E0EBE5F0E0808180688C932AC0EB
:104320008B81282F30E03D832C838C819D810097E9
:1043300069F02C813D812130310581F4A4E5B0E0A4
:10434000E4E5F0E080818F7B8C930AC0A4E5B0E0C7
:10435000E4E5F0E0808180648C9302C081E0898391
:10436000ABE5B0E0EBE5F0E0808180628C9302C0C9
:1043700081E0898389812B960FB6F894DEBF0FBE4A
:10438000CDBFCF91DF910895DF93CF9300D000D0C0
:10439000CDB7DEB78A8319828A8160E00E948720C8
:1043A000882359F18A81282F30E03C832B838B812D
:1043B0009C818130910589F02B813C81223031052F
:1043C000A1F08B819C810097D1F4ABE5B0E0EBE5E7
:1043D000F0E080818F7B8C9312C0ABE5B0E0EBE521
:1043E000F0E080818F778C930AC0ABE5B0E0EBE51D
:1043F000F0E080818F7D8C9302C081E08983898188
:104400000F900F900F900F90CF91DF910895DF9351
:10441000CF93CDB7DEB72B970FB6F894DEBF0FBEA4
:10442000CDBF8A836B8319828A816B810E9487202A
:10443000882309F4EDC08A81282F30E03B872A8742
:104440008A859B858130910509F466C02A853B8564
:104450002230310509F4BBC08A859B85009709F09D
:10446000D9C08B81282F30E03987288788859985A6
:104470008130910599F128853985223031052CF458
:10448000888599850097C9F1C5C02885398522306E
:104490003105A9F0888599858330910509F0BAC066
:1044A000A5E5B0E0E5E5F0E080818E7F8C93A5E5A1
:1044B000B0E0E5E5F0E080818D7F8C93ABC0A5E5B1
:1044C000B0E0E5E5F0E0808181608C93A5E5B0E0A7
:1044D000E5E5F0E080818D7F8C939CC0A5E5B0E0A0
:1044E000E5E5F0E080818E7F8C93A5E5B0E0E5E521
:1044F000F0E0808182608C938DC0A5E5B0E0E5E5B9
:10450000F0E0808181608C93A5E5B0E0E5E5F0E026
:10451000808182608C937EC08B81282F30E03F8326
:104520002E838E819F818130910599F12E813F816B
:10453000223031052CF48E819F810097C9F16AC029
:104540002E813F8122303105A9F08E819F818330F9
:10455000910509F05FC0A5E5B0E0E5E5F0E08081F8
:104560008B7F8C93A5E5B0E0E5E5F0E08081877F67
:104570008C9350C0A5E5B0E0E5E5F0E08081846073
:104580008C93A5E5B0E0E5E5F0E08081877F8C9332
:1045900041C0A5E5B0E0E5E5F0E080818B7F8C933C
:1045A000A5E5B0E0E5E5F0E0808188608C9332C05D
:1045B000A5E5B0E0E5E5F0E0808184608C93A5E5B9
:1045C000B0E0E5E5F0E0808188608C9323C08B81CA
:1045D000282F30E03D832C838C819D81009769F0EA
:1045E0002C813D812130310581F4A4E5B0E0E4E582
:1045F000F0E080818F7B8C930DC0A4E5B0E0E4E512
:10460000F0E0808180648C9305C081E0898302C0E2
:1046100081E0898389812B960FB6F894DEBF0FBEA7
:10462000CDBFCF91DF910895DF93CF9300D000D01D
:10463000CDB7DEB78A837C836B8319828A8160E081
:104640000E948720882389F08B819C81009769F0E4
:104650008A81882F90E0880F991FFC01E455FE4F56
:104660008B819C819183808302C081E089838981D1
:104670000F900F900F900F90CF91DF9108951F92A0
:104680000F920FB60F9211242F933F934F935F9386
:104690006F937F938F939F93AF93BF93EF93FF930A
:1046A000DF93CF93CDB7DEB78091AC019091AD0190
:1046B000009729F0E091AC01F091AD010995CF91FF
:1046C000DF91FF91EF91BF91AF919F918F917F917A
:1046D0006F915F914F913F912F910F900FBE0F906F
:1046E0001F9018951F920F920FB60F9211242F93BF
:1046F0003F934F935F936F937F938F939F93AF936A
:10470000BF93EF93FF93DF93CF93CDB7DEB7809145
:10471000AE019091AF01009729F0E091AE01F091C8
:10472000AF010995CF91DF91FF91EF91BF91AF91CB
:104730009F918F917F916F915F914F913F912F91B9
:104740000F900FBE0F901F9018951F920F920FB6EB
:104750000F9211242F933F934F935F936F937F9307
:104760008F939F93AF93BF93EF93FF93DF93CF9379
:10477000CDB7DEB78091B0019091B101009729F0DB
:10478000E091B001F091B1010995CF91DF91FF91D6
:10479000EF91BF91AF919F918F917F916F915F91B9
:1047A0004F913F912F910F900FBE0F901F90189532
:1047B000DF93CF9300D0CDB7DEB789831A8289818A
:1047C000843010F081E08A838A810F900F90CF911E
:1047D000DF910895DF93CF9300D0CDB7DEB7898303
:1047E0001A828981883010F081E08A838A810F9053
:1047F0000F90CF91DF910895DF93CF9300D0CDB785
:10480000DEB789831A828981823010F081E08A8341
:104810008A810F900F90CF91DF910895DF93CF930E
:10482000CDB7DEB728970FB6F894DEBF0FBECDBF69
:1048300089836A834B8389810E94D823882351F41A
:104840008A810E94EA23882329F48B810E94FC2319
:10485000882319F021E02887E7C08B81813009F097
:104860006FC08981282F30E03F832E838E819F8106
:104870008130910549F12E813F81223031052CF4A0
:104880008E819F81009761F0CEC02E813F812230C2
:10489000310571F18E819F8183309105E9F1C3C0AB
:1048A000AAE3B0E0EAE3F0E08081482F8A81282F74
:1048B00030E081E090E0022E02C0880F991F0A9438
:1048C000E2F7842B8C93AFC0A7E3B0E0E7E3F0E01E
:1048D0008081482F8A81282F30E081E090E0022EED
:1048E00002C0880F991F0A94E2F7842B8C939BC017
:1048F000A4E3B0E0E4E3F0E08081482F8A81282F30
:1049000030E081E090E0022E02C0880F991F0A94E7
:10491000E2F7842B8C9387C0A1E3B0E0E1E3F0E001
:104920008081482F8A81282F30E081E090E0022E9C
:1049300002C0880F991F0A94E2F7842B8C9373C0EE
:104940008981282F30E03D832C838C819D818130AB
:10495000910559F12C813D81223031052CF48C8157
:104960009D81009769F05FC02C813D812230310527
:1049700089F18C819D818330910509F440C053C039
:10498000AAE3B0E0EAE3F0E08081482F8A81282F93
:1049900030E081E090E0022E02C0880F991F0A9457
:1049A000E2F7809584238C933EC0A7E3B0E0E7E371
:1049B000F0E08081482F8A81282F30E081E090E06C
:1049C000022E02C0880F991F0A94E2F78095842373
:1049D0008C9329C0A4E3B0E0E4E3F0E08081482FA9
:1049E0008A81282F30E081E090E0022E02C0880FFB
:1049F000991F0A94E2F7809584238C9314C0A1E355
:104A0000B0E0E1E3F0E08081482F8A81282F30E098
:104A100081E090E0022E02C0880F991F0A94E2F70D
:104A2000809584238C931886888528960FB6F894F1
:104A3000DEBF0FBECDBFCF91DF910895DF93CF933F
:104A400000D000D00F92CDB7DEB789836A83898109
:104A50000E94D823882319F021E02D8333C0898157
:104A6000282F30E03C832B838B819C818130910502
:104A7000D1F02B813C81223031052CF48B819C813B
:104A8000009761F01EC02B813C812230310581F0FE
:104A90008B819C818330910581F013C0EAE3F0E0C3
:104AA0008A8180830EC0E7E3F0E08A81808309C0B9
:104AB000E4E3F0E08A81808304C0E1E3F0E08A81EE
:104AC00080831D828D810F900F900F900F900F901B
:104AD000CF91DF910895DF93CF93CDB7DEB72897BD
:104AE0000FB6F894DEBF0FBECDBF89836A834B83B8
:104AF00089810E94D823882341F48A810E94EA2375
:104B0000882319F48B81823018F021E02887E7C0D0
:104B10008B81813009F06FC08981282F30E03F837D
:104B20002E838E819F818130910549F12E813F81B5
:104B3000223031052CF48E819F81009761F0CEC028
:104B40002E813F812230310571F18E819F8183302A
:104B50009105E9F1C3C0ABE3B0E0EBE3F0E08081A5
:104B6000482F8A81282F30E081E090E0022E02C099
:104B7000880F991F0A94E2F7842B8C93AFC0A8E3A7
:104B8000B0E0E8E3F0E08081482F8A81282F30E010
:104B900081E090E0022E02C0880F991F0A94E2F78C
:104BA000842B8C939BC0A5E3B0E0E5E3F0E080812B
:104BB000482F8A81282F30E081E090E0022E02C049
:104BC000880F991F0A94E2F7842B8C9387C0A2E385
:104BD000B0E0E2E3F0E08081482F8A81282F30E0C6
:104BE00081E090E0022E02C0880F991F0A94E2F73C
:104BF000842B8C9373C08981282F30E03D832C83D4
:104C00008C819D818130910559F12C813D8122302B
:104C100031052CF48C819D81009769F05FC02C8157
:104C20003D812230310589F18C819D818330910550
:104C300009F440C053C0ABE3B0E0EBE3F0E08081A7
:104C4000482F8A81282F30E081E090E0022E02C0B8
:104C5000880F991F0A94E2F7809584238C933EC0B5
:104C6000A8E3B0E0E8E3F0E08081482F8A81282FB4
:104C700030E081E090E0022E02C0880F991F0A9474
:104C8000E2F7809584238C9329C0A5E3B0E0E5E3A7
:104C9000F0E08081482F8A81282F30E081E090E089
:104CA000022E02C0880F991F0A94E2F78095842390
:104CB0008C9314C0A2E3B0E0E2E3F0E08081482FDF
:104CC0008A81282F30E081E090E0022E02C0880F18
:104CD000991F0A94E2F7809584238C93188688851F
:104CE00028960FB6F894DEBF0FBECDBFCF91DF91EF
:104CF0000895DF93CF9300D000D00F92CDB7DEB7E9
:104D000089836A8389810E94D823882319F021E04E
:104D10002D8333C08981282F30E03C832B838B8106
:104D20009C8181309105D1F02B813C81223031056D
:104D30002CF48B819C81009761F01EC02B813C81FB
:104D40002230310581F08B819C818330910581F087
:104D500013C0EBE3F0E08A8180830EC0E8E3F0E06B
:104D60008A81808309C0E5E3F0E08A81808304C002
:104D7000E2E3F0E08A8180831D828D810F900F90A5
:104D80000F900F900F90CF91DF910895DF93CF9305
:104D9000CDB7DEB727970FB6F894DEBF0FBECDBFF5
:104DA00089836A835C834B8389810E94D82388230B
:104DB00049F48A810E94EA23882321F48B819C8113
:104DC000009719F421E02F8371C08981482F50E0AA
:104DD0005E834D838D819E818130910559F12D81B6
:104DE0003E812230310534F44D815E8141155105FB
:104DF00069F05BC08D819E818230910579F12D81B2
:104E00003E812330310509F43DC04FC0E9E3F0E0B5
:104E10008081282F30E08A81882F90E0A90102C08C
:104E2000559547958A95E2F7CA018170EB81FC811F
:104E300080833BC0E6E3F0E08081282F30E08A8168
:104E4000882F90E0A90102C0559547958A95E2F711
:104E5000CA018170EB81FC81808327C0E3E3F0E02D
:104E60008081282F30E08A81882F90E0A90102C03C
:104E7000559547958A95E2F7CA018170EB81FC81CF
:104E8000808313C0E0E3F0E08081282F30E08A8146
:104E9000882F90E0A90102C0559547958A95E2F7C1
:104EA000CA018170EB81FC8180831F828F812796EC
:104EB0000FB6F894DEBF0FBECDBFCF91DF9108953E
:104EC000DF93CF93CDB7DEB7E8970FB6F894DEBF88
:104ED0000FBECDBF80E060E041E00E946B2580E026
:104EE00061E040E00E946B2580E063E040E00E94CA
:104EF0006B2580E062E040E00E946B2580E090E05E
:104F0000A0E2B1E48DAB9EABAFABB8AF6DA97EA90B
:104F10008FA998AD20E030E04AEF54E40E941A15C2
:104F2000DC01CB0189AB9AABABABBCAB69A97AA96D
:104F30008BA99CA920E030E040E85FE30E94801745
:104F400088232CF481E090E098AB8FA73FC069A93B
:104F50007AA98BA99CA920E03FEF4FE757E40E9474
:104F6000201718164CF56DA97EA98FA998AD20E0E1
:104F700030E040E251E40E941A15DC01CB01BC0193
:104F8000CD010E94C800DC01CB0198AB8FA70FC0F8
:104F900088EC90E09EA78DA78DA59EA50197F1F7BF
:104FA0009EA78DA78FA598A9019798AB8FA78FA5CE
:104FB00098A9009769F714C069A97AA98BA99CA937
:104FC0000E94C800DC01CB0198AB8FA78FA598A9E0
:104FD0009CA78BA78BA59CA50197F1F79CA78BA7F6
:104FE00080E060E040E00E946B2580E061E041E00D
:104FF0000E946B2580E063E040E00E946B2580E02A
:1050000062E040E00E946B2580E090E0A0E2B1E425
:105010008FA398A7A9A7BAA76FA178A589A59AA5D4
:1050200020E030E04AEF54E40E941A15DC01CB0185
:105030008BA39CA3ADA3BEA36BA17CA18DA19EA1BC
:1050400020E030E040E85FE30E94801788232CF4E2
:1050500081E090E09AA389A33FC06BA17CA18DA1C0
:105060009EA120E03FEF4FE757E40E94201718165B
:105070004CF56FA178A589A59AA520E030E040E223
:1050800051E40E941A15DC01CB01BC01CD010E9444
:10509000C800DC01CB019AA389A30FC088EC90E083
:1050A00098A38F8F8F8D98A10197F1F798A38F8F79
:1050B00089A19AA101979AA389A389A19AA100978E
:1050C00069F714C06BA17CA18DA19EA10E94C800AC
:1050D000DC01CB019AA389A389A19AA19E8F8D8F10
:1050E0008D8D9E8D0197F1F79E8F8D8F80E060E012
:1050F00040E00E946B2580E061E040E00E946B256B
:1051000080E063E041E00E946B2580E062E040E0E7
:105110000E946B2580E090E0A0E2B1E4898F9A8F35
:10512000AB8FBC8F698D7A8D8B8D9C8D20E030E0AC
:105130004AEF54E40E941A15DC01CB018D8B9E8B43
:10514000AF8BB88F6D897E898F89988D20E030E094
:1051500040E85FE30E94801788232CF481E090E010
:105160009C8B8B8B3FC06D897E898F89988D20E0C9
:105170003FEF4FE757E40E94201718164CF5698D52
:105180007A8D8B8D9C8D20E030E040E251E40E94CE
:105190001A15DC01CB01BC01CD010E94C800DC0165
:1051A000CB019C8B8B8B0FC088EC90E09A8B898B0A
:1051B00089899A890197F1F79A8B898B8B899C89C8
:1051C00001979C8B8B8B8B899C89009769F714C006
:1051D0006D897E898F89988D0E94C800DC01CB0182
:1051E0009C8B8B8B8B899C89988B8F878F859889DB
:1051F0000197F1F7988B8F8780E060E040E00E9494
:105200006B2580E061E040E00E946B2580E063E078
:1052100040E00E946B2580E062E041E00E946B2547
:1052200080E090E0A0E2B1E48B879C87AD87BE87E9
:105230006B857C858D859E8520E030E04AEF54E4C7
:105240000E941A15DC01CB018F839887A987BA8742
:105250006F81788589859A8520E030E040E85FE3BA
:105260000E94801788232CF481E090E09E838D8338
:105270003FC06F81788589859A8520E03FEF4FE7B1
:1052800057E40E94201718164CF56B857C858D8598
:105290009E8520E030E040E251E40E941A15DC01D6
:1052A000CB01BC01CD010E94C800DC01CB019E8373
:1052B0008D830FC088EC90E09C838B838B819C81D5
:1052C0000197F1F79C838B838D819E8101979E834B
:1052D0008D838D819E81009769F714C06F817885D9
:1052E00089859A850E94C800DC01CB019E838D834D
:1052F0008D819E819A83898389819A810197F1F7B3
:105300009A838983E8960FB6F894DEBF0FBECDBFAF
:10531000CF91DF910895DF93CF93CDB7DEB7E897B4
:105320000FB6F894DEBF0FBECDBF80E060E041E075
:105330000E946B2580E062E040E00E946B2580E0E7
:1053400063E040E00E946B2580E061E040E00E9465
:105350006B2580E090E0A0E2B1E48DAB9EABAFABFB
:10536000B8AF6DA97EA98FA998AD20E030E04AEFD3
:1053700054E40E941A15DC01CB0189AB9AABABABAC
:10538000BCAB69A97AA98BA99CA920E030E040E8D0
:105390005FE30E94801788232CF481E090E098ABB3
:1053A0008FA73FC069A97AA98BA99CA920E03FEFEC
:1053B0004FE757E40E94201718164CF56DA97EA9F7
:1053C0008FA998AD20E030E040E251E40E941A1528
:1053D000DC01CB01BC01CD010E94C800DC01CB0186
:1053E00098AB8FA70FC088EC90E09EA78DA78DA5E6
:1053F0009EA50197F1F79EA78DA78FA598A9019764
:1054000098AB8FA78FA598A9009769F714C069A9D1
:105410007AA98BA99CA90E94C800DC01CB0198AB9A
:105420008FA78FA598A99CA78BA78BA59CA5019753
:10543000F1F79CA78BA780E060E040E00E946B251D
:1054400080E062E041E00E946B2580E063E040E0A4
:105450000E946B2580E061E040E00E946B2580E0C7
:1054600090E0A0E2B1E48FA398A7A9A7BAA76FA183
:1054700078A589A59AA520E030E04AEF54E40E947F
:105480001A15DC01CB018BA39CA3ADA3BEA36BA11A
:105490007CA18DA19EA120E030E040E85FE30E9466
:1054A000801788232CF481E090E09AA389A33FC061
:1054B0006BA17CA18DA19EA120E03FEF4FE757E4B7
:1054C0000E94201718164CF56FA178A589A59AA5FA
:1054D00020E030E040E251E40E941A15DC01CB01EB
:1054E000BC01CD010E94C800DC01CB019AA389A3B5
:1054F0000FC088EC90E098A38F8F8F8D98A10197B3
:10550000F1F798A38F8F89A19AA101979AA389A3F4
:1055100089A19AA1009769F714C06BA17CA18DA104
:105520009EA10E94C800DC01CB019AA389A389A196
:105530009AA19E8F8D8F8D8D9E8D0197F1F79E8FF5
:105540008D8F80E060E040E00E946B2580E062E0AB
:1055500040E00E946B2580E063E041E00E946B2503
:1055600080E061E040E00E946B2580E090E0A0E2F6
:10557000B1E4898F9A8FAB8FBC8F698D7A8D8B8DBB
:105580009C8D20E030E04AEF54E40E941A15DC01C3
:10559000CB018D8B9E8BAF8BB88F6D897E898F8968
:1055A000988D20E030E040E85FE30E948017882378
:1055B0002CF481E090E09C8B8B8B3FC06D897E89C1
:1055C0008F89988D20E03FEF4FE757E40E94201726
:1055D00018164CF5698D7A8D8B8D9C8D20E030E00E
:1055E00040E251E40E941A15DC01CB01BC01CD015F
:1055F0000E94C800DC01CB019C8B8B8B0FC088EC18
:1056000090E09A8B898B89899A890197F1F79A8B17
:10561000898B8B899C8901979C8B8B8B8B899C892F
:10562000009769F714C06D897E898F89988D0E94D3
:10563000C800DC01CB019C8B8B8B8B899C89988B60
:105640008F878F8598890197F1F7988B8F8780E0F6
:1056500060E040E00E946B2580E062E040E00E9454
:105660006B2580E063E040E00E946B2580E061E014
:1056700041E00E946B2580E090E0A0E2B1E48B87DE
:105680009C87AD87BE876B857C858D859E8520E058
:1056900030E04AEF54E40E941A15DC01CB018F83FD
:1056A0009887A987BA876F81788589859A8520E050
:1056B00030E040E85FE30E94801788232CF481E00B
:1056C00090E09E838D833FC06F81788589859A8520
:1056D00020E03FEF4FE757E40E94201718164CF5E3
:1056E0006B857C858D859E8520E030E040E251E42D
:1056F0000E941A15DC01CB01BC01CD010E94C8003B
:10570000DC01CB019E838D830FC088EC90E09C83ED
:105710008B838B819C810197F1F79C838B838D8197
:105720009E8101979E838D838D819E81009769F76D
:1057300014C06F81788589859A850E94C800DC0134
:10574000CB019E838D838D819E819A8389838981FC
:105750009A810197F1F79A838983E8960FB6F894B6
:10576000DEBF0FBECDBFCF91DF910895DF93CF9302
:10577000CDB7DEB762970FB6F894DEBF0FBECDBFD0
:105780006D877E878F87988B498B6D857E858F850A
:1057900098890E946218DC01CB01BC01CD0123E392
:1057A00033E343E35FE30E941416DC01CB01BC0149
:1057B000CD010E94C800DC01CB0189879A87AB87A5
:1057C000BC878989882301F51D821E821F82188665
:1057D0000DC00E9460278D819E81AF81B8850196A2
:1057E000A11DB11D8D839E83AF83B8872D813E811E
:1057F0004F81588589859A85AB85BC8528173907DF
:105800004A075B0730F326C08989813001F5198288
:105810001A821B821C820DC00E948B2989819A8169
:10582000AB81BC810196A11DB11D89839A83AB8395
:10583000BC8329813A814B815C8189859A85AB85BE
:10584000BC85281739074A075B0730F303C081E09E
:105850008A8B01C01A8A8A8962960FB6F894DEBFD5
:105860000FBECDBFCF91DF910895DF93CF93CDB71A
:10587000DEB762970FB6F894DEBF0FBECDBF6D875F
:105880007E878F87988B498B8D859E85AF85B8895C
:1058900029E130E040E050E0BC01CD010E949039A8
:1058A000DC01CB0189879A87AB87BC8789898823EC
:1058B00001F51D821E821F8218860DC00E9460277E
:1058C0008D819E81AF81B8850196A11DB11D8D830B
:1058D0009E83AF83B8872D813E814F81588589850E
:1058E0009A85AB85BC85281739074A075B0730F3D3
:1058F00026C08989813001F519821A821B821C8297
:105900000DC00E948B2989819A81AB81BC8101964F
:10591000A11DB11D89839A83AB83BC8329813A8100
:105920004B815C8189859A85AB85BC8528173907B1
:105930004A075B0730F303C081E08A8B01C01A8AF3
:105940008A8962960FB6F894DEBF0FBECDBFCF91A5
:10595000DF910895DF93CF93CDB7DEB72F970FB6C2
:10596000F894DEBF0FBECDBF8F8781E060E040E0DE
:105970000E946B2581E061E040E00E946B2582E09F
:105980006F850E94792681E062E041E00E946B25EC
:1059900080E090E0A0E8B0E48B879C87AD87BE876D
:1059A0006B857C858D859E8520E030E04AEF54E450
:1059B0000E941A15DC01CB018F839887A987BA87CB
:1059C0006F81788589859A8520E030E040E85FE343
:1059D0000E94801788232CF481E090E09E838D83C1
:1059E0003FC06F81788589859A8520E03FEF4FE73A
:1059F00057E40E94201718164CF56B857C858D8521
:105A00009E8520E030E040E251E40E941A15DC015E
:105A1000CB01BC01CD010E94C800DC01CB019E83FB
:105A20008D830FC088EC90E09C838B838B819C815D
:105A30000197F1F79C838B838D819E8101979E83D3
:105A40008D838D819E81009769F714C06F81788561
:105A500089859A850E94C800DC01CB019E838D83D5
:105A60008D819E819A83898389819A810197F1F73B
:105A70009A83898381E062E040E00E946B252F9643
:105A80000FB6F894DEBF0FBECDBFCF91DF91089562
:105A9000DF93CF93CDB7DEB72F970FB6F894DEBF65
:105AA0000FBECDBF8F8781E060E041E00E946B2593
:105AB00081E061E040E00E946B2582E06F850E94FA
:105AC000792681E062E041E00E946B2580E090E071
:105AD000A0E8B0E48B879C87AD87BE876B857C850B
